{
    "contractName": "KycContract",
    "abi": [
        {
            "anonymous": false,
            "inputs": [
                {
                    "indexed": true,
                    "internalType": "address",
                    "name": "previousOwner",
                    "type": "address"
                },
                {
                    "indexed": true,
                    "internalType": "address",
                    "name": "newOwner",
                    "type": "address"
                }
            ],
            "name": "OwnershipTransferred",
            "type": "event"
        },
        {
            "inputs": [
                {
                    "internalType": "address",
                    "name": "addr",
                    "type": "address"
                }
            ],
            "name": "isKycCompleted",
            "outputs": [
                {
                    "internalType": "bool",
                    "name": "",
                    "type": "bool"
                }
            ],
            "stateMutability": "view",
            "type": "function"
        },
        {
            "inputs": [],
            "name": "owner",
            "outputs": [
                {
                    "internalType": "address",
                    "name": "",
                    "type": "address"
                }
            ],
            "stateMutability": "view",
            "type": "function"
        },
        {
            "inputs": [],
            "name": "renounceOwnership",
            "outputs": [],
            "stateMutability": "nonpayable",
            "type": "function"
        },
        {
            "inputs": [
                {
                    "internalType": "address",
                    "name": "addr",
                    "type": "address"
                }
            ],
            "name": "setKycCompleted",
            "outputs": [],
            "stateMutability": "nonpayable",
            "type": "function"
        },
        {
            "inputs": [
                {
                    "internalType": "address",
                    "name": "addr",
                    "type": "address"
                }
            ],
            "name": "setKycRevoked",
            "outputs": [],
            "stateMutability": "nonpayable",
            "type": "function"
        },
        {
            "inputs": [
                {
                    "internalType": "address",
                    "name": "newOwner",
                    "type": "address"
                }
            ],
            "name": "transferOwnership",
            "outputs": [],
            "stateMutability": "nonpayable",
            "type": "function"
        }
    ],
    "bytecode": "608060405234801561001057600080fd5b5061001a3361001f565b61006f565b600080546001600160a01b038381166001600160a01b0319831681178455604051919092169283917f8be0079c531659141344cd1fd0a4f28419497f9722a3daafe3b4186f6b6457e09190a35050565b6103678061007e6000396000f3fe608060405234801561001057600080fd5b50600436106100625760003560e01c806370c9aedd14610067578063715018a61461007c5780638a037562146100845780638da5cb5b146100c5578063dc3958cc146100e0578063f2fde38b146100f3575b600080fd5b61007a6100753660046102cc565b610106565b005b61007a610160565b6100b06100923660046102cc565b6001600160a01b031660009081526001602052604090205460ff1690565b60405190151581526020015b60405180910390f35b6000546040516001600160a01b0390911681526020016100bc565b61007a6100ee3660046102cc565b610196565b61007a6101013660046102cc565b6101e1565b6000546001600160a01b031633146101395760405162461bcd60e51b8152600401610130906102fc565b60405180910390fd5b6001600160a01b03166000908152600160208190526040909120805460ff19169091179055565b6000546001600160a01b0316331461018a5760405162461bcd60e51b8152600401610130906102fc565b610194600061027c565b565b6000546001600160a01b031633146101c05760405162461bcd60e51b8152600401610130906102fc565b6001600160a01b03166000908152600160205260409020805460ff19169055565b6000546001600160a01b0316331461020b5760405162461bcd60e51b8152600401610130906102fc565b6001600160a01b0381166102705760405162461bcd60e51b815260206004820152602660248201527f4f776e61626c653a206e6577206f776e657220697320746865207a65726f206160448201526564647265737360d01b6064820152608401610130565b6102798161027c565b50565b600080546001600160a01b038381166001600160a01b0319831681178455604051919092169283917f8be0079c531659141344cd1fd0a4f28419497f9722a3daafe3b4186f6b6457e09190a35050565b6000602082840312156102de57600080fd5b81356001600160a01b03811681146102f557600080fd5b9392505050565b6020808252818101527f4f776e61626c653a2063616c6c6572206973206e6f7420746865206f776e657260408201526060019056fea2646970667358221220b180f47b86cbc5131b5f5161d85975e719a3b9f7ba48c6a76bdeb024860d341b64736f6c634300080e0033",
    "sourcePath": "/home/gabriele/projects/solidity/asset-tokenization-project/contracts/KycContract.sol",
    "compiler": {
        "name": "solc",
        "version": "0.8.14+commit.80d49f37"
    },
    "functionHashes": {
        "isKycCompleted(address)": "8a037562",
        "owner()": "8da5cb5b",
        "renounceOwnership()": "715018a6",
        "setKycCompleted(address)": "70c9aedd",
        "setKycRevoked(address)": "dc3958cc",
        "transferOwnership(address)": "f2fde38b"
    },
    "gasEstimates": {
        "creation": {
            "codeDepositCost": "174200",
            "executionCost": "26061",
            "totalCost": "200261"
        },
        "external": {
            "isKycCompleted(address)": "2525",
            "owner()": "2345",
            "renounceOwnership()": "28114",
            "setKycCompleted(address)": "26705",
            "setKycRevoked(address)": "26775",
            "transferOwnership(address)": "28362"
        }
    }
}