{
  "contractName": "KycContract",
  "abi": [
    {
      "anonymous": false,
      "inputs": [
        {
          "indexed": true,
          "internalType": "address",
          "name": "previousOwner",
          "type": "address"
        },
        {
          "indexed": true,
          "internalType": "address",
          "name": "newOwner",
          "type": "address"
        }
      ],
      "name": "OwnershipTransferred",
      "type": "event"
    },
    {
      "inputs": [],
      "name": "owner",
      "outputs": [
        {
          "internalType": "address",
          "name": "",
          "type": "address"
        }
      ],
      "stateMutability": "view",
      "type": "function",
      "constant": true
    },
    {
      "inputs": [],
      "name": "renounceOwnership",
      "outputs": [],
      "stateMutability": "nonpayable",
      "type": "function"
    },
    {
      "inputs": [
        {
          "internalType": "address",
          "name": "newOwner",
          "type": "address"
        }
      ],
      "name": "transferOwnership",
      "outputs": [],
      "stateMutability": "nonpayable",
      "type": "function"
    },
    {
      "inputs": [
        {
          "internalType": "address",
          "name": "addr",
          "type": "address"
        }
      ],
      "name": "setKycCompleted",
      "outputs": [],
      "stateMutability": "nonpayable",
      "type": "function"
    },
    {
      "inputs": [
        {
          "internalType": "address",
          "name": "addr",
          "type": "address"
        }
      ],
      "name": "setKycRevoked",
      "outputs": [],
      "stateMutability": "nonpayable",
      "type": "function"
    },
    {
      "inputs": [
        {
          "internalType": "address",
          "name": "addr",
          "type": "address"
        }
      ],
      "name": "isKycCompleted",
      "outputs": [
        {
          "internalType": "bool",
          "name": "",
          "type": "bool"
        }
      ],
      "stateMutability": "view",
      "type": "function",
      "constant": true
    }
  ],
  "bytecode": "0x608060405234801561001057600080fd5b5061002d61002261003260201b60201c565b61003a60201b60201c565b6100fe565b600033905090565b60008060009054906101000a900473ffffffffffffffffffffffffffffffffffffffff169050816000806101000a81548173ffffffffffffffffffffffffffffffffffffffff021916908373ffffffffffffffffffffffffffffffffffffffff1602179055508173ffffffffffffffffffffffffffffffffffffffff168173ffffffffffffffffffffffffffffffffffffffff167f8be0079c531659141344cd1fd0a4f28419497f9722a3daafe3b4186f6b6457e060405160405180910390a35050565b6107bf8061010d6000396000f3fe608060405234801561001057600080fd5b50600436106100625760003560e01c806370c9aedd14610067578063715018a6146100835780638a0375621461008d5780638da5cb5b146100bd578063dc3958cc146100db578063f2fde38b146100f7575b600080fd5b610081600480360381019061007c91906105ed565b610113565b005b61008b6101e9565b005b6100a760048036038101906100a291906105ed565b610271565b6040516100b49190610635565b60405180910390f35b6100c56102c7565b6040516100d2919061065f565b60405180910390f35b6100f560048036038101906100f091906105ed565b6102f0565b005b610111600480360381019061010c91906105ed565b6103c7565b005b61011b6104be565b73ffffffffffffffffffffffffffffffffffffffff166101396102c7565b73ffffffffffffffffffffffffffffffffffffffff161461018f576040517f08c379a0000000000000000000000000000000000000000000000000000000008152600401610186906106d7565b60405180910390fd5b60018060008373ffffffffffffffffffffffffffffffffffffffff1673ffffffffffffffffffffffffffffffffffffffff16815260200190815260200160002060006101000a81548160ff02191690831515021790555050565b6101f16104be565b73ffffffffffffffffffffffffffffffffffffffff1661020f6102c7565b73ffffffffffffffffffffffffffffffffffffffff1614610265576040517f08c379a000000000000000000000000000000000000000000000000000000000815260040161025c906106d7565b60405180910390fd5b61026f60006104c6565b565b6000600160008373ffffffffffffffffffffffffffffffffffffffff1673ffffffffffffffffffffffffffffffffffffffff16815260200190815260200160002060009054906101000a900460ff169050919050565b60008060009054906101000a900473ffffffffffffffffffffffffffffffffffffffff16905090565b6102f86104be565b73ffffffffffffffffffffffffffffffffffffffff166103166102c7565b73ffffffffffffffffffffffffffffffffffffffff161461036c576040517f08c379a0000000000000000000000000000000000000000000000000000000008152600401610363906106d7565b60405180910390fd5b6000600160008373ffffffffffffffffffffffffffffffffffffffff1673ffffffffffffffffffffffffffffffffffffffff16815260200190815260200160002060006101000a81548160ff02191690831515021790555050565b6103cf6104be565b73ffffffffffffffffffffffffffffffffffffffff166103ed6102c7565b73ffffffffffffffffffffffffffffffffffffffff1614610443576040517f08c379a000000000000000000000000000000000000000000000000000000000815260040161043a906106d7565b60405180910390fd5b600073ffffffffffffffffffffffffffffffffffffffff168173ffffffffffffffffffffffffffffffffffffffff16036104b2576040517f08c379a00000000000000000000000000000000000000000000000000000000081526004016104a990610769565b60405180910390fd5b6104bb816104c6565b50565b600033905090565b60008060009054906101000a900473ffffffffffffffffffffffffffffffffffffffff169050816000806101000a81548173ffffffffffffffffffffffffffffffffffffffff021916908373ffffffffffffffffffffffffffffffffffffffff1602179055508173ffffffffffffffffffffffffffffffffffffffff168173ffffffffffffffffffffffffffffffffffffffff167f8be0079c531659141344cd1fd0a4f28419497f9722a3daafe3b4186f6b6457e060405160405180910390a35050565b600080fd5b600073ffffffffffffffffffffffffffffffffffffffff82169050919050565b60006105ba8261058f565b9050919050565b6105ca816105af565b81146105d557600080fd5b50565b6000813590506105e7816105c1565b92915050565b6000602082840312156106035761060261058a565b5b6000610611848285016105d8565b91505092915050565b60008115159050919050565b61062f8161061a565b82525050565b600060208201905061064a6000830184610626565b92915050565b610659816105af565b82525050565b60006020820190506106746000830184610650565b92915050565b600082825260208201905092915050565b7f4f776e61626c653a2063616c6c6572206973206e6f7420746865206f776e6572600082015250565b60006106c160208361067a565b91506106cc8261068b565b602082019050919050565b600060208201905081810360008301526106f0816106b4565b9050919050565b7f4f776e61626c653a206e6577206f776e657220697320746865207a65726f206160008201527f6464726573730000000000000000000000000000000000000000000000000000602082015250565b600061075360268361067a565b915061075e826106f7565b604082019050919050565b6000602082019050818103600083015261078281610746565b905091905056fea26469706673582212207d929613893511f701c22276b7a49acdf109a4ae6ba24b5561eabca6c3cf044064736f6c634300080e0033",
  "immutableReferences": {},
  "source": "// SPDX-License-Identifier: MIT\npragma solidity ^0.8.14;\n\nimport \"@openzeppelin/contracts/access/Ownable.sol\";\n\ncontract KycContract is Ownable {\n    mapping(address => bool) allowed;\n\n    function setKycCompleted(address addr) public onlyOwner {\n        allowed[addr] = true;\n    }\n\n    function setKycRevoked(address addr) public onlyOwner {\n        allowed[addr] = false;\n    }\n\n    function isKycCompleted(address addr) public view returns (bool) {\n        return allowed[addr];\n    }\n}\n",
  "sourcePath": "/home/gabriele/projects/solidity/asset-tokenization-project/contracts/KycContract.sol",
  "compiler": {
    "name": "solc",
    "version": "0.8.14+commit.80d49f37.Emscripten.clang"
  },
  "schemaVersion": "3.4.7",
  "updatedAt": "2022-06-04T19:58:48.741Z",
  "networkType": "ethereum",
  "devdoc": {
    "kind": "dev",
    "methods": {
      "owner()": {
        "details": "Returns the address of the current owner."
      },
      "renounceOwnership()": {
        "details": "Leaves the contract without owner. It will not be possible to call `onlyOwner` functions anymore. Can only be called by the current owner. NOTE: Renouncing ownership will leave the contract without an owner, thereby removing any functionality that is only available to the owner."
      },
      "transferOwnership(address)": {
        "details": "Transfers ownership of the contract to a new account (`newOwner`). Can only be called by the current owner."
      }
    },
    "version": 1
  },
  "userdoc": {
    "kind": "user",
    "methods": {},
    "version": 1
  }
}